:040301007FF47E0106
:10030500E4FDFCC3ED9FEC9E5015E4FBFA0BBB002E
:0F031500010AEB64FA4A70F50DBD00010C80E49B
:0103240022B6
:1001DD008F20C2B5C2A3A20792A2C2A1D2A1A2062C
:1001ED0092A2C2A1D2A1A20592A2C2A1D2A1A204A1
:1001FD0092A2C2A1D2A1A20392A2C2A1D2A1A20295
:10020D0092A2C2A1D2A1A20192A2C2A1D2A1A20088
:09021D0092A2C2A1D2A1D2B52225
:100226008F20C2B5D2A3A20792A2C2A1D2A1A206D2
:1002360092A2C2A1D2A1A20592A2C2A1D2A1A20457
:1002460092A2C2A1D2A1A20392A2C2A1D2A1A2024B
:1002560092A2C2A1D2A1A20192A2C2A1D2A1A2003F
:0902660092A2C2A1D2A1D2B522DC
:0A035B00AE05120226AF06020226CC
:10026F008F20C2B5C2A3A20792A2C2A1D2A1A20699
:10027F0092A2C2A1D2A1A20592A2C2A1D2A1A2040E
:10028F0092A2C2A1D2A1A20392A2C2A1D2A1A20202
:10029F0092A2C2A1D2A1A20192A2C2A1D2A1A200F6
:0902AF0092A2C2A1D2A1D2B52293
:0E01860012026F7F011201947F2C1201940F60
:100194008F20C2B5D2A3A20792A2C2A1D2A1A20665
:1001A40092A2C2A1D2A1A20592A2C2A1D2A1A204EA
:1001B40092A2C2A1D2A1A20392A2C2A1D2A1A202DE
:1001C40092A2C2A1D2A1A20192A2C2A1D2A1A200D2
:0901D40092A2C2A1D2A1D2B5226F
:0E034100C2B47F647E00120305D2B40203052D
:10000300C2B47F647E00120305D2B41203057F11CC
:1000130012026F7F781203057FB11201867FB2123D
:1000230001867FB31201861201897FB412026F7FAA
:10003300071201947FC012026F7FA21201947F0204
:100043001201947F841201947FC112026F7FC51243
:1000530001947FC212026F7F0A120194E4FF12011E
:10006300947FC312026F7F8A1201947F2A12019434
:100073007FC412026F7F8A1201947FEE1201947F74
:10008300C512026F7F0E1201947F3612026F7FC07A
:100093001201947FE012026F7F0F1201947F1A12F4
:1000A30001947F0F1201947F181201947F2F120184
:1000B300947F281201947F201201947F22120194CD
:1000C3007F1F1201947F1B1201947F231201947FDF
:1000D30037120194FF1201947F071201947F0212D9
:1000E30001947F101201947FE112026F7F0F1201BE
:1000F300947F1B1201947F0F1201947F17120194B6
:100103007F331201947F2C1201947F291201947F73
:100113002E1201947F301201941201947F3912013F
:10012300947F3F120194FF1201947F071201947F81
:10013300031201947F101201947F2A12026FFF129F
:1001430001941201941201947F7F1201947F2B1268
:10015300026FFF1201941201941201947F9F120106
:10016300947FF012026F7F011201947FF612026FE7
:10017300FF1201947F3A12026F7F051201947F29C7
:0301830002026F06
:080325008E088F09AB05AA0444
:10032D00E4FCE4F9AF09AD0312035B09B980F50CE8
:03033D00BCA0EF72
:01034000229A
:1002B8001200037F2C12026F7DFF7C007FFF7E00FF
:1002C800120325120301E4FDFCFF1E12032512038D
:1002D80001E4FDFC7FF81E1203251203017DE07C7A
:1002E800007F071E1203251203017D1F7C00E4FF17
:0902F8001E12032512030180BA55
:0300000002034FA9
:0C034F00787FE4F6D8FD7581200202B82A
:00000001FF
