:020000040800F2
:100000000004002047010008750100087B0100087A
:100010007F0100088301000887010008000000003C
:100020000000000000000000000000008B0100083C
:100030008D010008000000008F01000891010008F8
:1000400067010008670100086701000867010008F0
:1000500067010008670100086701000867010008E0
:1000600067010008670100086701000867010008D0
:1000700067010008670100086701000867010008C0
:1000800067010008670100086701000867010008B0
:1000900067010008670100086701000867010008A0
:1000A0006701000867010008670100086701000890
:1000B0006701000867010008670100086701000880
:1000C0006701000867010008670100086701000870
:1000D0006701000877010008670100086701000850
:1000E0006701000867010008670100086701000850
:1000F0006701000867010008670100086701000840
:10010000670100086701000867010008670100082F
:10011000670100086701000867010008670100081F
:10012000670100086701000867010008670100080F
:10013000DFF80CD001F0DEFE00480047C5040008DF
:1001400028020020704708488047084981F3088842
:1001500007480047FEE7FEE7FEE7FEE7FEE7FEE7AB
:10016000FEE7FEE7FEE7FEE7450100082802002063
:1001700031010008704700BFFEE700BFFEE700BF87
:10018000FEE700BFFEE700BFFEE77047704770471D
:100190007047000008B54EF67D7000F0DAFDDBA375
:1001A00000934EF67D731F220021102001F0ACF861
:1001B000DAA300934EF67D734FF478421421102099
:1001C00001F0A2F83A23712226210F2001F05CF8F9
:1001D000D6A300934EF67D734FF6E07228211020CF
:1001E00001F092F85823712244210F2001F04CF8BD
:1001F000D2A300934EF67D731F224621102001F0FA
:1002000083F87623712262210F2001F03DF8CFA3FD
:1002100000934EF67D734FF478426421102001F074
:1002200073F8CEA300934EF67D731F227821102021
:1002300001F06AF8CDA300934EF67D734FF4784237
:100240008C21102001F060F8CC48437900934EF6E1
:100250007D734FF478427D21642001F00DFA4FF454
:100260007A7000F0A9FDC548037900934EF67D73BE
:100270004FF478427D21642001F0FEF94FF47A704A
:1002800000F09AFDBD48C37800934EF67D734FF49D
:1002900078427D21642001F0EFF94FF47A7000F08C
:1002A0008BFDB648837800934EF67D734FF4784209
:1002B0007D21642001F0E0F94FF47A7000F07CFDBC
:1002C000AE48437800934EF67D734FF478427D211B
:1002D000642001F0D1F94FF47A7000F06DFDA74869
:1002E000037800934EF67D734FF478427D216420AD
:1002F00001F0C2F908BDF8B500244EF67D7000F09B
:1003000028FD9FA300934EF67D734FF4784214218D
:10031000102000F0F9FF4FF47A7000F04DFD4EF61A
:100320007D7000F016FD00BF1FE0032094FBF0F08D
:1003300040011E3085B2032094FBF0F100FB114018
:1003400000EB8000C004060C8C49601C0B5C009321
:100350004EF67D734FF478422946304601F08CF911
:10036000642000F029FD601CC4B20A2CDDDBF8BD5E
:1003700008B54EF67D7000F0ECFC70A300934EF6CD
:100380007D731F220A21102000F0BEFF4FF47A7007
:1003900000F012FD4EF67D7000F0DBFC5BA30093D5
:1003A0004EF67D734FF6E0721E21102000F0ACFF78
:1003B00076A300934EF67D731F223221102000F0A9
:1003C000A3FF76A300934EF67D734FF47842462147
:1003D000102000F099FF75A300934EF67D731F2245
:1003E0006421002000F090FF74A300934EF67D730B
:1003F0004FF478428221002000F086FF4FF4E16044
:1004000000F0DAFC08BD38B501244EF67D7000F02E
:10041000A0FC6EA300934EF67D731F220A211420C8
:1004200000F072FFC82000F0C7FC11E04FF6FF702B
:1004300000F08FFC002000F08CFC4FF4784000F0BE
:1004400088FC4FF4FC6000F084FC1F2000F081FC6D
:100450002000A4F10101CCB2E8D138BD2DE9F84368
:100460004EF67D7000F075FC38A300934EF67D7358
:100470001F220A21102000F047FF4FF47A7000F08D
:100480009BFC4EF67D7000F064FC4FF000080024E9
:1004900014E000250FE0404608F101084E490E5CCB
:1004A000404608F101080F5C304600F0DBF83846A2
:1004B00000F0D8F86D1CA02DEDDB641C802CE8DB6F
:1004C000BDE8F883002401F0EAFC482000F05EFC5F
:1004D00011E0002000F010F94FF400703F4908606F
:1004E00004F10100C4B2FFF743FFFFF7B7FF4FF479
:1004F000966000F061FCECE710B501F0D0FC10BD97
:1005000000E0401E0028FCD170470000C8ABB6AF29
:10051000B5E7D7D3BCBCCAF500000000D2BABEA76D
:10052000B2E2CAD4B3CCD0F200000000D1D5C9AB3E
:10053000CCEEB3E4B2E2CAD400000000CEC4D7D6F9
:10054000CFD4CABEB2E2CAD400000000CDBCC6AC53
:10055000CFD4CABEB2E2CAD40000000053313A4D33
:100560006F76652E202020200000000053323A5381
:10057000656C6C65637420200000000000000020A2
:100580004E756D205465737400000000D7A8D7A283
:10059000D2BABEA7C5FAB7A200000000C8ABB3CC60
:1005A000BCBCCAF5D6A7B3D60000000054656C3AAF
:1005B0003135393839333133353038007777772E64
:1005C0007164746563682E6E65740000436F6C6FB0
:1005D0007220546573740000361F0008100C01402F
:1005E00008B50121082001F088FB4FF47E40ADF8EA
:1005F000000003208DF8020010208DF803006946EA
:10060000FF4801F0E7F808BD00214FF40062FD4B00
:100610001A604FF48062FC4BC3F8142C4FF00801B1
:1006200019E010F0800F04D04FF40042F74B1A602D
:1006300003E04FF40042F34B1A604FF40052F14BC9
:100640001A60F14BC3F8102C4FEA40624FEA126077
:10065000A1F10102D1B20029E3DC4FF40062EB4BBF
:100660001A60704700214FF40062E64B1A604FF4A5
:100670008062E54BC3F8102C4FF0080119E010F030
:10068000800F04D04FF40042E04B1A6003E04FF4B7
:100690000042DC4B1A604FF40052DA4B1A60DA4B1E
:1006A000C3F8102C4FEA40624FEA1260A1F1010238
:1006B000D1B20029E3DC4FF40062D44B1A607047DA
:1006C00030B505460C462846FFF79EFF2046FFF74B
:1006D000C9FF30BD10B54FF48050CA4908604FF0D3
:1006E000640000F069FB4FF48050C749C1F8100C5A
:1006F000322000F061FB10BD10B50446FFF770FF1B
:10070000FFF7E8FFECBB1120FFF77EFF782000F039
:1007100053FBB120FFF778FF0120FFF7A3FF2C2048
:10072000FFF7A0FF2D20FFF79DFFB220FFF76CFF22
:100730000120FFF797FF2C20FFF794FF2D20FFF7F4
:1007400091FFB320FFF760FF0120FFF78BFF2C2004
:10075000FFF788FF2D20FFF785FF0120FFF782FFBD
:100760002C20FFF77FFF2D20FFF77CFFB420FFF741
:100770004BFF0720FFF776FFC020FFF745FFA220C1
:1007800000E0CEE0FFF76EFF0220FFF76BFF842052
:10079000FFF768FFC120FFF737FFC520FFF762FFB3
:1007A000C220FFF731FF0A20FFF75CFF0020FFF7B0
:1007B00059FFC320FFF728FF8A20FFF753FF2A20A5
:1007C000FFF750FFC420FFF71FFF8A20FFF74AFF03
:1007D000EE20FFF747FFC520FFF716FF0E20FFF7BB
:1007E00041FF3620FFF710FFC020FFF73BFFE0205E
:1007F000FFF70AFF0F20FFF735FF1A20FFF732FF40
:100800000F20FFF72FFF1820FFF72CFF2F20FFF7F7
:1008100029FF2820FFF726FF2020FFF723FF2220B3
:10082000FFF720FF1F20FFF71DFF1B20FFF71AFF18
:100830002320FFF717FF3720FFF714FF0020FFF7F3
:1008400011FF0720FFF70EFF0220FFF70BFF10201C
:10085000FFF708FFE120FFF7D7FE0F20FFF702FFA9
:100860001B20FFF7FFFE0F20FFF7FCFE1720FFF70E
:10087000F9FE3320FFF7F6FE2C20FFF7F3FE2920C8
:10088000FFF7F0FE2E20FFF7EDFE3020FFF7EAFE27
:100890003020FFF7E7FE3920FFF7E4FE3F20FFF7A7
:1008A000E1FE0020FFF7DEFE0720FFF7DBFE03205E
:1008B000FFF7D8FE1020FFF7D5FE2A20FFF7A4FE91
:1008C0000020FFF7CFFE0020FFF7CCFE0020FFF74F
:1008D000C9FE7F20FFF7C6FE2B20FFF795FE002004
:1008E000FFF7C0FE0020FFF7BDFE0020FFF7BAFEB5
:1008F0009F20FFF7B7FEF020FFF786FE0120FFF7ED
:10090000B1FEF620FFF780FE0020FFF7ABFE3A2095
:10091000FFF77AFE0520FFF7A5FE2920FFF774FEFA
:10092000C6E1012C74D11120FFF76EFE782000F093
:1009300043FAB120FFF768FE0520FFF793FE3C2045
:10094000FFF790FE3C20FFF78DFEB220FFF75CFE24
:100950000520FFF787FE3C20FFF784FE3C20FFF7D1
:1009600081FEB320FFF750FE0520FFF77BFE3C2001
:10097000FFF778FE3C20FFF775FE0520FFF772FEBB
:100980003C20FFF76FFE3C20FFF76CFEB420FFF722
:100990003BFE0320FFF766FEC020FFF735FE2E204A
:1009A000FFF760FE0620FFF75DFE0420FFF75AFE0A
:1009B000C120FFF729FEC020FFF754FEC220FFF739
:1009C00023FE0D20FFF74EFE0020FFF74BFEC32055
:1009D000FFF71AFE8D20FFF745FEEA20FFF742FEE3
:1009E000C520FFF711FE0320FFF73CFEC420FFF7F0
:1009F0000BFE8D20FFF736FEEE20FFF733FE08E0FA
:100A0000000C0140140C014000000140100C01409A
:100A100075E03620FFF7F8FDC020FFF723FEE02049
:100A2000FFF7F2FD0320FFF71DFE1F20FFF71AFE60
:100A30000620FFF717FE0B20FFF714FE3520FFF707
:100A400011FE3520FFF70EFE3020FFF70BFE33209E
:100A5000FFF708FE3120FFF705FE2E20FFF702FE0C
:100A60003420FFF7FFFD3E20FFF7FCFD0020FFF7DD
:100A7000F9FD0020FFF7F6FD0120FFF7F3FD03204D
:100A8000FFF7F0FDE120FFF7BFFD0320FFF7EAFDD0
:100A90001E20FFF7E7FD0620FFF7E4FD0B20FFF720
:100AA000E1FD3520FFF7DEFD3420FFF7DBFD2F20D1
:100AB000FFF7D8FD3320FFF7D5FD3220FFF7D2FD39
:100AC0002E20FFF7CFFD3520FFF7CCFD3E20FFF7AE
:100AD000C9FD0020FFF7C6FD0120FFF7C3FD02207E
:100AE000FFF7C0FD0420FFF7BDFD2120FFF78CFDBF
:100AF0002920FFF789FD2C20FFF786FDD8E0022C86
:100B00007ED11120FFF780FD642000F055F93A20D6
:100B1000FFF77AFD0520FFF7A5FD2620FFF774FDFE
:100B20000420FFF79FFDF220FFF76EFD0120FFF785
:100B300099FDE020FFF768FD3F20FFF793FD25209A
:100B4000FFF790FD1C20FFF78DFD1E20FFF78AFDAB
:100B50002020FFF787FD1220FFF784FD2A20FFF7F2
:100B600081FD9020FFF77EFD2420FFF77BFD112003
:100B7000FFF778FD0020FFF775FD0020FFF772FDFD
:100B80000020FFF76FFD0020FFF76CFD0020FFF74E
:100B900069FDE120FFF738FD2020FFF763FD2020ED
:100BA000FFF760FD2020FFF75DFD2020FFF75AFDD5
:100BB0000520FFF757FD0020FFF754FD1520FFF734
:100BC00051FDA720FFF74EFD3D20FFF74BFD1820FC
:100BD000FFF748FD2520FFF745FD2A20FFF742FDDE
:100BE0002B20FFF73FFD2B20FFF73CFD3A20FFF7BE
:100BF00039FDB120FFF708FD0820FFF733FD00E0C5
:100C000056E00820FFF72EFDB420FFF7FDFC07207B
:100C1000FFF728FDC020FFF7F7FC0A20FFF722FDB1
:100C20000220FFF71FFDC120FFF7EEFC0220FFF7B7
:100C300019FDC520FFF7E8FC4F20FFF713FD5A20F0
:100C4000FFF710FDC720FFF7DFFC4020FFF70AFD8C
:100C50002A20FFF7D9FC0020FFF704FD0020FFF752
:100C600001FD0020FFF7FEFC7F20FFF7FBFC2B209F
:100C7000FFF7CAFC0020FFF7F5FC0020FFF7F2FCAD
:100C80000020FFF7EFFC7F20FFF7ECFC3620FFF79A
:100C9000BBFCC820FFF7E6FCB720FFF7B5FC00203F
:100CA000FFF7E0FC2920FFF7AFFC2C20FFF7ACFC9E
:100CB00010BDF0B504460D4616461F462A20FFF724
:100CC000A3FC0020FFF7CEFCE0B2FFF7CBFC002036
:100CD000FFF7C8FCF0B2FFF7C5FC2B20FFF794FC30
:100CE0000020FFF7BFFCE8B2FFF7BCFC0020FFF7D5
:100CF000B9FCF8B2FFF7B6FC2C20FFF785FCF0BD7D
:100D000030B504460D462B46224629462046FFF7BD
:100D1000D0FF30BD70B505460E461446701C83B238
:100D2000681C82B231462846FFF7C3FF2012FFF746
:100D300099FCE0B2FFF796FC70BD60B505460E4623
:100D400031462846FFF7DCFFE0B2FFF78BFC204678
:100D500060BD70B504469F237F2200210846FFF73F
:100D6000A8FF2C20FFF750FC00250BE0002606E032
:100D70002012FFF777FCE0B2FFF774FC761CA02E80
:100D8000F6D36D1C802DF1D370BD00004FF0E02133
:100D9000096921F004014FF0E0221161C21700EB54
:100DA0005272D2101F4B1A70194609784FF47A729A
:100DB00051431D4A1180704701461B4A12884A431D
:100DC0004FF0E0235A6100229A6101221A6100BFAC
:100DD0004FF0E022106910F0010F02D010F4803FB4
:100DE000F6D000224FF0E0231A619A617047014665
:100DF0000C4A12784A434FF0E0235A6100229A616C
:100E000001221A6100BF4FF0E022106910F0010FBB
:100E100002D010F4803FF6D000224FF0E0231A6198
:100E20009A617047100000201200002030B5014682
:100E300001F01F04C1F34513CA0AE50205EB43158F
:100E40001544A8B230BD2DE9F04706460F4690463E
:100E50009A46002445464FEA4800C0F103094AE09B
:100E60007A1991B2321990B25246FFF753FF7A19AC
:100E700091B2321B90B25246FFF74CFF7A1B91B2EF
:100E8000321990B25246FFF745FF7A1B91B2321BDE
:100E900090B25246FFF73EFF3A1991B2721990B2E2
:100EA0005246FFF737FF3A1991B2721B90B2524681
:100EB000FFF730FF3A1B91B2721990B25246FFF71A
:100EC00029FF3A1B91B2721B90B25246FFF722FFE4
:100ED000B9F1000F05DA042000FB049000F10609C7
:100EE00007E0601B042101FB009000F10A09681E65
:100EF00085B2601C84B2AC42B2DBAC4237D17A1905
:100F000091B2321990B25246FFF704FF7A1991B2AA
:100F1000321990B25246FFF7FDFE7A1B91B2321998
:100F200090B25246FFF7F6FE7A1B91B2321B90B296
:100F30005246FFF7EFFE3A1991B2721990B252463B
:100F4000FFF7E8FE3A1991B2721B90B25246FFF7D2
:100F5000E1FE3A1B91B2721990B25246FFF7DAFEE7
:100F60003A1B91B2721B90B25246FFF7D3FEBDE816
:100F7000F0872DE9FF4F83B08046894649464046B9
:100F8000FFF7BEFE0598A0EB08050698A0EB090642
:100F9000002D02DB0120029003E04FF0FF300290B1
:100FA0006D42002E02DB0120019003E04FF0FF3084
:100FB000019076424FEA450A4FEA460BB54219DDE9
:100FC000ABEB0504002712E049464046109AFFF7B4
:100FD000A1FE002C05DBA4EB0A04019848441FFA8B
:100FE00080F95C44029840441FFA80F87F1CAF42AD
:100FF000EADD18E0AAEB0604002712E04946404665
:10100000109AFFF787FE002C05DBA4EB0B04029877
:1010100040441FFA80F85444019848441FFA80F96C
:101020007F1CB742EADD07B0BDE8F08F2DE9F84339
:1010300005460C4616461F46DDF820804EF67D73A9
:10104000A81982B20093234621462846FFF791FF54
:1010500042F66513611C394400938BB2A919491EED
:101060008AB2A919491E88B2611C89B2FFF781FFB3
:1010700042F66513E019009383B2A81982B2E01911
:1010800081B22846FFF775FF4EF67D73E019009395
:1010900083B22A4621462846FFF76BFF601C38447E
:1010A000801E83B2681C3044801E82B2601C81B2F4
:1010B000681C80B2CDF80080FFF75BFFBDE8F883C5
:1010C0002DE9F84305460C4616461F46DDF82080FC
:1010D000B8F1000F2FD14EF67D73A81982B200939C
:1010E000234621462846FFF744FF42F66513611C5C
:1010F000394400938BB2A919491E8AB2A919491E15
:1011000088B2611C89B2FFF734FF42F66513E0191B
:10111000009383B2A81982B2E01981B22846FFF782
:1011200028FF4EF67D73E019009383B22A462146CC
:101130002846FFF71EFFB8F1010F2FD142F66513C5
:10114000A81982B20093234621462846FFF711FFD3
:101150004EF67D73611C394400938BB2A919491E68
:101160008AB2A919491E88B2611C89B2FFF701FF32
:101170004EF67D73E019009383B2A81982B2E0198C
:1011800081B22846FFF7F5FE42F66513E019009399
:1011900083B22A4621462846FFF7EBFEB8F1020F3C
:1011A0002FD14FF6FF73A81982B200932346214630
:1011B0002846FFF7DEFE4FF6FF73611C39440093AB
:1011C0008BB2A919491E8AB2A919491E88B2611C9D
:1011D00089B2FFF7CEFE4FF6FF73E019009383B29A
:1011E000A81982B2E01981B22846FFF7C2FE4FF675
:1011F000FF73E019009383B22A4621462846FFF781
:10120000B8FEBDE8F883F8B504460D4616461F46FD
:1012100044F2082300932B46324629462046FFF726
:10122000A8FE48F21043681C009383B2324681B294
:10123000601C80B2FFF79DFE44F2082300933B46FA
:10124000224629462046FFF794FE48F210430093B9
:101250003B46601C82B2681C81B2601C80B2FFF702
:1012600088FE4FF6FF7300933B46324639462046D0
:10127000FFF77FFE4FF6FF7300933B463246294649
:101280003046FFF776FEF8BDF8B506460F46144621
:101290001D464FF6FF7300933B46224639463046C3
:1012A000FFF767FE4FF6FF7300932B463246394631
:1012B0003046FFF75EFE48F21043681E009383B28B
:1012C00081B22246701C80B2FFF753FE44F208231D
:1012D00000932B46224629463046FFF74AFE48F245
:1012E0001043611E8AB288B200932B46791C89B2E2
:1012F000FFF73FFE44F2082300932B46224639466F
:101300002046FFF736FEF8BD2DE9F84F0746884620
:1013100093469A46DDF828900097B3E099F80000CC
:1013200080283DDA99F800600D2E05D1009F08F164
:1013300010001FFA80F830E0202E03DDA6F1200017
:1013400086B200E00026002422E000251CE004EB29
:101350000610E849085C80212941084208D008EBC2
:10136000040291B27A1990B25A46FFF7D3FC09E011
:10137000D34507D008EB040291B27A1990B25246D5
:10138000FFF7C8FC681CC5B2082DE0DB601CC4B2C6
:10139000102CDADB07F1080087B209F1010971E0CE
:1013A000002668E006EB0610D34911F8100099F802
:1013B000001088425DD106EB0610CF4901EB4000DA
:1013C000407899F80110884253D100244FE000255D
:1013D00020E006EB0610C84901EB4000801C10F825
:1013E000141080202841014208D008EB040291B279
:1013F0007A1990B25A46FFF78DFC09E0D34507D021
:1014000008EB040291B27A1990B25246FFF782FCBF
:10141000681CC5B2082DDCDB002524E006EB0610B5
:10142000B54901EB4000801C012101EB4401405C07
:1014300080212941084209D008EB040291B27A19AF
:10144000083290B25A46FFF765FC0AE0D34508D04F
:1014500008EB040291B27A19083290B25246FFF7B3
:1014600059FC681CC5B2082DD8DB601CC4B2102C16
:10147000ADDB701C86B2322E94DB09F1020907F154
:10148000100087B299F8000000287FF447AFBDE84C
:10149000F88F2DE9F05F0646884693469A46DDF8B8
:1014A0002890E2E099F80000802835DA99F8007079
:1014B000202F03DDA7F1200087B200E000270025E0
:1014C00022E000241CE005EB07108A49095C80201B
:1014D0002041014208D008EB050291B2321990B2C6
:1014E0005A46FFF717FC09E0D34507D008EB050281
:1014F00091B2321990B25246FFF70CFC601CC4B294
:10150000082CE0DB681CC5B2102DDADB09F10109FB
:1015100006F1080086B2A8E000279EE007EB8700EE
:1015200000EB4710754911F8100099F80010884237
:101530007CD107EB870000EB4710704901EB4000BE
:10154000407899F80110884270D1002580E000248D
:1015500023E007EB870000EB4710684901EB4000F0
:10156000801C05EB4501405C80212141084208D0E8
:1015700008EB050291B2321990B25A46FFF7CAFB46
:1015800009E0D34507D008EB050291B2321990B2B9
:101590005246FFF7BFFB601CC4B2082CD9DB002405
:1015A00026E007EB870000EB4710544901EB4000B1
:1015B000801C05EB4501491C405C8021214108420B
:1015C00009D008EB050291B23219083290B25A469E
:1015D000FFF7A0FB0AE0D34508D008EB050291B263
:1015E0003219083290B25246FFF794FB601CC4B225
:1015F000082CD6DB002427E007EB870000EB471020
:101600003E4901EB4000801C05EB4501891C405C14
:101610008021214108420AD008EB050291B232191B
:10162000103290B25A46FFF775FB0BE013E0D3453A
:1016300008D008EB050291B23219103290B252462E
:10164000FFF768FB601CC4B2082CD5DB681CC5B270
:10165000182DFFF67CAF781C87B2142FFFF65EAF13
:1016600009F1020906F1180086B299F80000002875
:101670007FF418AFBDE8F09F2DE9FF5F074688466D
:1016800092469946002531E000242BE01C490E9833
:1016900001EBC01000EB850010F804B000261DE03F
:1016A0008020304110EA0B0F0AD008EB050291B2FE
:1016B00007EBC402324490B25246FFF72BFB0BE01B
:1016C000CA4509D008EB050291B207EBC4023244C7
:1016D00090B24A46FFF71EFB701CC6B2082EDFDB35
:1016E000601CC4B2042CD1DB681CC5B2202DCBDB3E
:1016F000BDE8FF9F36BF0008A8CC000890D30008C3
:1017000027C5000810B50446C549601A8C422FD081
:1017100009DCC448201810D0B0F5806F16D0B0F5A1
:10172000006F4AD11BE0B0F5806F2AD0B0F5006F92
:1017300030D0B0F5406F40D135E00121042000F0F9
:10174000F6FA0021042000F0F2FA37E00121082027
:1017500000F0EDFA0021082000F0E9FA2EE0012166
:10176000102000F0E4FA0021102000F0E0FA25E05B
:101770000121202000F0DBFA0021202000F0D7FA20
:101780001CE00121402000F0D2FA0021402000F0AE
:10179000CEFA13E00121802000F0C9FA0021802058
:1017A00000F0C5FA0AE00121080200F0C0FA0021A9
:1017B0004FF4807000F0BBFA00E000BF00BF10BD26
:1017C00010B50121084600F0B2FA0021012000F016
:1017D000AEFA10BD2DE9F04102460025002600209A
:1017E00000230024002791F803C00CF00F0591F8A6
:1017F00003C01CF0100F03D091F802C04CEA05059D
:10180000B1F800C01CF0FF0F31D0146800202BE0AD
:101810004FF0010C0CFA00F3B1F800C00CEA03061B
:101820009E4220D183004FF00F0C0CFA03F7BC430B
:1018300005FA03FC4CEA040491F803C0BCF1280F3C
:1018400006D14FF0010C0CFA00FCC2F814C00AE0FB
:1018500091F803C0BCF1480F05D14FF0010C0CFA10
:1018600000FCC2F810C0401C0828D1D31460B1F8A5
:1018700000C0BCF1FF0F34DD546800202EE000F101
:10188000080C4FF0010808FA0CF3B1F800C00CEA9C
:1018900003069E4221D183004FF00F0C0CFA03F790
:1018A000BC4305FA03FC4CEA040491F803C0BCF104
:1018B000280F05D100F1080C08FA0CF8C2F81480C2
:1018C00091F803C0BCF1480F07D100F1080C4FF0AC
:1018D000010808FA0CF8C2F81080401C0828CED382
:1018E0005460BDE8F0814FF6FF71018002218170E4
:1018F0000421C17070470246002093680B4201D05A
:10190000012000E0002070470146886880B27047DF
:1019100002460020D3680B4201D0012000E00020E5
:1019200070470146C86880B27047016170474161E5
:1019300070470AB1016100E041617047C1607047C2
:101940004FF480320A4382618161826182698269D7
:10195000704702460020344B18684FF680731840D9
:1019600040EA02100843304B186070472F49C861A5
:101970007047F0B50A4600230024002100252A4EB6
:101980007168C0F3034583B200F44016B6F5401FFA
:1019900008D121F07061244E766826F07066224FDF
:1019A0007E6012E000F48016B6F5801F06D1032693
:1019B00006FA05F4A14341F0706106E0460D3601D8
:1019C00003FA06F6B14341F0706122B1460D3601CB
:1019D00003FA06F63143144E7160F0BD30B50022B3
:1019E0008B071C0F0F2303FA04F20F4B08338C10E4
:1019F00053F8243093430C4C08348D1044F82530B0
:101A000023468C1053F824308C07240F00FA04F47A
:101A10002343054C08348D1044F8253030BD0000B8
:101A20000014014000F8FEBF000001400000204209
:101A3000DA48006840F00100D8490860084640686C
:101A4000D7490840D549486008460068D54908404C
:101A5000D24908600846006820F4802008600846E3
:101A6000406820F4FE004860002088607047CB4941
:101A7000096821F48031C94A11601146096821F4CE
:101A800080211160B0F5803F03D0B0F5802F0ED1DA
:101A900006E0C249096841F48031C04A116007E09C
:101AA000BE49096841F4A021BC4A116000E000BFB2
:101AB00000BF704710B501460022002300204A11E4
:101AC000012A02D1B54C236806E0022A02D1B34CA8
:101AD000236A01E0B14C636A01F01F0201249440C3
:101AE0001C4201D0012000E0002010BD70B5002490
:101AF0000025002600BF3120FFF7DCFF0646641CEE
:101B000016B9B4F5A06FF6D13120FFF7D3FF08B1B5
:101B1000012500E00025284670BD014600209F4AAF
:101B2000106820F0F80040EAC100106070479E493C
:101B30000860704702460020984B586820F47C10DB
:101B400042EA01031843954B58607047964908666E
:101B5000704701460020914A506820F00300084376
:101B6000506070478D48406800F00C007047014697
:101B700000208A4A506820F0F00008435060704707
:101B800001460020854A506820F4E0600843506018
:101B9000704701460020814A506820F4605040EAB6
:101BA000C1005060704729B17C4A527A02437B4B96
:101BB0005A7206E0794A527AC343DBB21A40774B35
:101BC0005A72704779490860704701460020734A8D
:101BD000506820F440400843506070470021744A28
:101BE00011706E4A82F82010012802D0042808D112
:101BF00003E001216E4A117004E005216C4A117066
:101C000000E000BF00BF70476A4908607047634941
:101C1000096A0143614A1162704767490860704769
:101C200030B500210022002400235C4D6D6805F0D2
:101C30000C0121B1042905D0082923D105E05F4D0D
:101C4000056022E05D4D05601FE0544D6D6805F4B0
:101C50007012022505EB9242504D6D6805F48034F8
:101C60001CB9574D554305600BE04C4D6D6815F49C
:101C7000003F03D0524D5543056002E04F4D5543A0
:101C8000056002E04D4D056000BF00BF434D6D682B
:101C900005F0F00109094B4D6B5C0568DD404560BE
:101CA0003E4D6D6805F4E061090A464D6B5C456880
:101CB000DD408560394D6D6805F46051C90A414DBC
:101CC0006B5C4568DD40C560344D6D6805F440418E
:101CD000890B3D4D6B5CC568B5FBF3F5056130BD07
:101CE00029B12E4A526902432C4B5A6104E02B4A17
:101CF00052698243294B5A61704729B1274A926938
:101D00000243264B9A6104E0244A92698243234BA2
:101D10009A61704729B1214AD26902431F4BDA61A7
:101D200004E01E4AD26982431C4BDA61704729B134
:101D30001A4AD2680243194BDA6004E0174AD268A3
:101D40008243164BDA60704729B1144A1269024384
:101D5000124B1A6104E0114A126982430F4B1A6157
:101D600070471A49086070470F49C86470470B49AB
:101D7000C87170470948406A40F08070074948625E
:101D8000704701460020054A92680A4201D00120AE
:101D900000E000207047014988727047001002403F
:101DA0000000FFF8FFFFF6FE00004242D80042426A
:101DB00020100240800442423C04424200127A0059
:101DC00000093D001400002024000020400442428D
:101DD00000210020434A126842F48032414B1A60CD
:101DE00000BF404A126802F40030491C10B9B1F536
:101DF000A06FF6D13B4A126812F4003F01D00120D7
:101E000000E00020012843D1374A126842F0100256
:101E1000354B1A601A46126822F003021A601A46FD
:101E2000126842F002021A602E4A52682D4B5A6024
:101E30001A4652685A601A46526842F480625A60E2
:101E40001A46526822F47C125A601A46526842F4CA
:101E5000E8125A601A46126842F080721A6000BF97
:101E6000204A126812F0007FFAD01E4A526822F00F
:101E700003021C4B5A601A46526842F002025A6032
:101E800000BF184A526802F00C02082AF9D101E09A
:101E900000BFFEE7704710B5FFF79AFF10BD10B501
:101EA0001048006840F001000E490860084640688C
:101EB0000E4908400B494860084600680C49084034
:101EC000084908600846006820F480200860084639
:101ED000406820F4FE00486000208860FFF7DBFFC8
:101EE00010BD000000100240002002400000FFF87A
:101EF000FFFFF6FE064C074D06E0E06840F00103E8
:101F000094E8070098471034AC42F6D3FEF714F972
:101F100010D9000830D9000802E008C8121F08C113
:101F2000002AFAD170477047002001E001C1121F5A
:101F3000002AFBD17047A46BA46BA46CA46CA46CA6
:101F4000A46CA46BA46BA46BA46BA46BA46BA46B18
:101F5000A46BA46BA46BA46B93A96205390330C373
:101F600028A3208320A32083208320831883186341
:101F700010630863084308430043004300430043E1
:101F80001063106318831863188318831863188309
:101F90001063106310831083188320A320A328C428
:101FA00030C430E4390439043904390439043904BB
:101FB000390441244124410438E438E430C430C3B6
:101FC00028A428A420C318833945EE35FEB7F69718
:101FD000F655DCADDD31FF19FEF8FEF9FF19FF19EA
:101FE000FEF9F6D8F6B7EE76EE13D48B30C30002C6
:101FF0003924D50CEE0EE58CE56BE58BE58CE56BB5
:10200000E54AED8BB4289BCAF670E60FE5EEE5EEE7
:10201000E5EFEE0FE5EE7AA7CD0CE5CEE5EFE60FA6
:10202000EE30EE30EE30E5EF82E8DDF2F6F6EED59A
:10203000EED5EED5F6D6A46BA46CA46BA46BA46C01
:10204000A46CA46CA46CA46CA46BA46BA46BA46B14
:10205000A46BAC8BA40A6A8730E3288228A328A348
:1020600020A320A3208320831883106308630843E0
:102070000843086310631063106310831083108398
:102080001063106310631063106310831883188348
:1020900020A320A328C430C330E430E43904390439
:1020A00038E4390439043904390439043904390469
:1020B0003904390438E430E4390439043904390482
:1020C00038E430E420A418633966EE76FEB7FEB734
:1020D000F6B7EDF3DD51FEF8FEF8FEF9FF19FF1932
:1020E000FEF9F6D8F6B7EE76EE13C44A188300224E
:1020F0003924D52DEDEEE58CE58CE58CE58CE56B92
:10210000E54BEDABABE893AAF690E60FEE0FE5CE0C
:10211000DD8DEE0FE5EE7AC7CD2DE610E5EFE5EFAC
:10212000EE30EE31EE30E5CE7AC7DDF2F6F6EED5E2
:10213000EED5F6D5F6F6A46BA46CA46BA46BA46BD9
:10214000A46CA46CA46BA46BA46BA46BA46BA46B15
:10215000AC8C83494144288228C328C328A328A3E0
:1021600020A320A31883106310631063106310630F
:10217000188318831883106310631063106310634F
:102180001063108310831883188320A320A320A337
:1021900020A320A32083188318832083208320A3D7
:1021A00028A428C428C428C428C430E430E430E477
:1021B000390438E43904390430E430E430C430E41C
:1021C00030E430C428C420A33125EE55FED7F6965E
:1021D000F6B7EE14DD51FEF8FEF8FEF9FEF9FEF951
:1021E000FEF8F6D8F6B7EE76EDF2BBE920A3004391
:1021F0003103D52CEE2EE58CE58CE58CE5ACE58B3A
:10220000E58CEDACB4289BCAF66FEE0FE60FE5CE79
:10221000DDADE5EEE5EE72A7CD2DE5EFE5CFE5EF1F
:10222000EE31EE31EE30E5EF7AE7D5F2F6F6F6F67E
:10223000EED5EED5F6F6A46BA46CA46BA48BA46CBF
:10224000A46CA46CA46BA46BA46BA44BA44BAC8B2C
:1022500072A728A228C230E328C328C328C320A31A
:1022600018831883106318831883188318831863DE
:102270001063106310631063108318631883208346
:1022800018831063106310631063086308630863A6
:102290000863106318831884188318A320A420A34C
:1022A00028C428C430C430E430E438E4390430E4CD
:1022B00030E430C430C430E4392539043904310401
:1022C00030E430E428C420A428E4E615FED7F696CE
:1022D000F6B7EE35DD51FED8FEF8FEF9FEF9FEF850
:1022E000F6F8F6D8F6B7EE76EDF2AB8820A20062EB
:1022F00028E3D50CEE0EE58CE56BE56BE58BE56B25
:10230000E56BEDACB408A3EAFE90EE2FEE2FEE30B5
:10231000EE2FEE2FEE2F7AC7BC6AD54DE5CFE61033
:10232000EE51EE51EE30EE1082E7D5D2F716F6F60A
:10233000F6F6EED5EED6A46CA46CA46CA48BA46BBC
:10234000A46BA46BA46BA46BA44BA46BAC8C624673
:1023500028A230E330E328C330E328C320A318A326
:1023600018832083208320A320A318831883188335
:1023700018831883208318831883186310631083CD
:102380001063106308831083088310831083108305
:10239000188310831083108310831083188320A464
:1023A00020A420A428C428C430C430C430E431049C
:1023B00039043905310430E428C428C428C428C4A9
:1023C00028E4310428E420A41883CD73FED7F697BF
:1023D000F6B7F655E592FED8FEF8F6F8F6F8F6F8F8
:1023E000F6D8F6B7F697EE76EDF2AB6810620043DA
:1023F00020C3CCEBEDEDE58BE56BE56BE56BE56BB9
:10240000DD4BEDACA38793AAFE90EE0EE5EFEE2F29
:10241000E60FEE2FEE4F72A6B429D50CE5CFE5EF0F
:10242000EE30EE31EE30E5EF7AA7D5F2F716F6F69C
:10243000F6D5EED6EEF6A46CA46CA46CA48CA46BBA
:10244000A46BA46CA46BA46BA48BAC6C5A052882FF
:1024500038E328E328C328E328C320A320A320A32C
:1024600020A328A320A320A320A3208320A320838C
:1024700018831883186310631083108318831883DC
:1024800018831083108310831083108310831083AC
:10249000188318A420A428C428E430E428E428E4FD
:1024A000310531053104310431043104310430E4A3
:1024B00030E430E43104310428C428C420A420A42A
:1024C00020A418A4188410830842B4F1FEF8F6B7CB
:1024D000F6B8F656DD51F6F8FEF8FED8FED8F6D876
:1024E000F6B7F6B7F696EE55EDD1B3881062004315
:1024F00020A3CCCBEDEDE56BE56BE58BE56BE56BF8
:10250000DD2AED8BA3C88B69F66FE5EEEE0EEE2F9C
:10251000E5EEE60EEDEE6A86BC6BDD6DE5EFE610EE
:10252000EE10EE30EE51EE10AC4BDDF2F6F6F6F6B4
:10253000F6D5EED5EED6A46CA46CA46CA46CA46CF9
:10254000A46CA46BA46BA48BA46B5A0628A23103C1
:1025500030E328E328E328C328E328C328C328C39B
:1025600028C328A320A328A328A320A3208318835B
:10257000188320A318831883108318831884188461
:10258000108308830863086308630863106310639B
:10259000106310631063188320A428C4310431042D
:1025A0003925416649864966416641654165496606
:1025B000414539253904390430E428E428C428E4A5
:1025C00028C41884108408830022ACB0FEF8F6B743
:1025D000FED8F676D4AFF6D8FEF9FEF8F6D8F6D7E0
:1025E000F6B7F697EE76EE54E5B1C3C9188200232C
:1025F00020A3CCABF60EE58CE56BE58BE56BE56BCC
:10260000E54AED8BABE89BCAFE90EE2FEE2FEE5025
:10261000EE2FEE0FEE0E7287BCCDD56DE5CFE5EF58
:10262000EE30EE51EE31EE30AC0ADE13F716F6F670
:10263000F6F6EEF6F6F6A46CA46CA46CA46CA46C8E
:10264000A46CA46BA46BA44B59E530C2390330E3EE
:1026500030E330E330E330E330E330E328C328C332
:1026600028E330E328E328C328A320A32083208382
:1026700020A3188310630863086310631083088322
:1026800008830863086308630863086308631063CA
:10269000188318831883188418A420A420A428C49D
:1026A00028C430E431053925392549664986416613
:1026B00049A641664145412541253924392430E464
:1026C00030E420A4108308830023B4B0FEF8F6B7EA
:1026D000F6D8F6B7D510EE76FF19FF19FEF8F6D842
:1026E000F6B7F696EE76EE34E5B1C3E930C30023D3
:1026F00020A3CCCBF60EE5ACE5ACE58CE5ACE58BE8
:10270000E54BED8BB408A40BFEB1EE50EE50EE504D
:10271000EE50EE2FF64F6A86B46BE5EFDDCEE61095
:10272000E610EE51EE31EE0F8B28DE13F717F6F6BA
:10273000F6F6F6F6EEF6A46CA46CA46CA46CA46C8D
:10274000A46BA44BA46B6A6630E33923310330E3F6
:1027500030E3310330E330E330E330E330E330E3C0
:1027600030E330E328C328C320A320A318A318A371
:1027700018831083108310831083108310A310A478
:1027800008830863086300630863086310631063C9
:1027900010631083188318A320A428C430E43105E3
:1027A000310539253105310530E431053925392523
:1027B000392539253925416539453925390531040A
:1027C000390430E420C410630002ACB0FF19F6D81D
:1027D000F6D8FED8E592EE15FF19FF19FF19F6F8A5
:1027E000F6B7EE76EE55E5F3DD70CBE961630002F6
:1027F0001883CCCBF60EE58CE5ACE5ACE58CE58B2F
:10280000E58CEDCCB4299BCAFE90EE2FEE2FEE2F77
:10281000EE30EE2FEE4F72C6B42AE5CEDD8DE61017
:10282000EE51EE31EE30E5EF82E8DE33F716EEF6EC
:10283000EEF6F6D6F6F6A46CA46CA46CA46CA46CAC
:10284000A44BA44B72C739033924310428E3310364
:102850003903310330E330E33903390330E330E344
:1028600030E330E328C328C320C320A320A320A340
:1028700018A318A318A3108310A41084108408832D
:102880000883086408830863086308631083188357
:102890001883188310831883208420A420C428C49C
:1028A00030E439253925310530E528E428E53105BE
:1028B000390531053104310539253925310530E433
:1028C00030E4310430E420A40843C532FF18F6D8C0
:1028D000F6D8FED8E5D3E5F4FF19FF19FF19F6F98C
:1028E000F6B7EE76EE34E5F3DD2EC3888A0428A32E
:1028F0001062CCCBF60EE58CE58CE5ACE58CE56B97
:10290000E56BEDACC489A40AF690EE2FEE2FEE0F26
:10291000EE0FEE2FEE4F8307BCABDDAEDD8DE5EFA6
:10292000EE31EE30E5CFE5CE7AE8DE13F716F6F6B7
:10293000F6F6F6D6F6F6A46CA46CA46CA46CA46BA4
:10294000A44B72C73903412439243103310339239D
:1029500031033103390339033903310331033103BF
:102960003103310428E328C328C320C320C320A394
:1029700020A320A318A318A4108408830863086365
:102980000063086308630883108310840863086386
:10299000086310631063108318841884188320A4BC
:1029A00020A420A428E431053925310428E428C4D2
:1029B00020C428E53105310528E43105310428E437
:1029C00020C420C420A418A40842B4F1FF18F6B70C
:1029D000FED8FEF8DD72D552FF39FF19FF19F6F85F
:1029E000F6B7EE76EE34E5D2D4ACC367B2E68A042D
:1029F00028A2C4ABF60EE58CE58CE5ACEDCDE5ACDC
:102A0000E58CEDACC489B44BF691EE50EE50EE502F
:102A1000EE0FEE2FF6708308BCABDD8EE5CFE5CF71
:102A2000E610EE51EE30E5CF7AC7DE13F716F6F674
:102A3000F6F6F6F6F6F6A46CA46CA46CA46CA44BA3
:102A40007B2849434124392429033124412331037C
:102A500039033903390339033103310431033103B5
:102A60003104310430E328E328C328C428E420C417
:102A700020C418A320C418A418C418A410A4108437
:102A8000106310630863086308631083108408638D
:102A90001063106308630863086310631063108396
:102AA00018A41884108318A420C430E4390439050C
:102AB000390428E41884108418A418C428E520C414
:102AC00018A418A418A418A400029C4FFF19F6B764
:102AD000FED8FED8E592CCF0FF19FEF9FF19F6F901
:102AE000F6B7EE76EE34E5D2DD2FD44BC367B2C530
:102AF0006123B46BF62EE56CE58CE58CE5ACE58CDA
:102B0000E58CEDCCB428AC2BF690EE4FEE50EE30C9
:102B1000EE0FEE2FF6708307BC6AE5AEE5CFE5EF6A
:102B2000E5EFE60FEE0FE60F7AA7DDF3F716F6F600
:102B3000F6F6EEF6F6F6A48CA48CA46CA46C8B8945
:102B40005184392341443104392341443903310349
:102B500039033903390331033104310428E330E404
:102B600030E33103310428E428C328C420C320C43F
:102B700020C420C418A418A410A4108310830883B0
:102B800008831083108410831084108418831063CA
:102B900010630863086308631063106310631063B5
:102BA00010631083106310831083188318A420A46B
:102BB00028C428C428C418A408630863086318A498
:102BC00018C40883108410840002730BFF18F6B732
:102BD000FEF8F6D8F675D510F6D8FEF9FF19FF19EC
:102BE000F6D8EE96EE55EE13E570D46CCBC8C367FD
:102BF00079A4B44BF62FE5ACE58CE5ACE5CDE58CDE
:102C0000E56CEDEDB429A40BF690EE2FEE50E5EF58
:102C1000E5EFEE50F67082E7BC8BDD8DDDAEE5EFC3
:102C2000EE0FEE10E5CFEE0F8308DDF3FF37F6F67B
:102C3000F6F6F717F717A48CA46CA46C9C0B6A66C5
:102C40004144394431243924414439243923392435
:102C500039243924310328E33104310431043103A8
:102C6000392331033104310428E328E328E428E43C
:102C700020E420E418C418C410A41084108408832D
:102C8000088310841083088308631083106308632B
:102C9000106308630863188328C330C330C330C38C
:102CA00028C32083188310631063108320A420C3DB
:102CB00020A40863108318A318A418A41083086321
:102CC000088308630863086300224A08FED7FED819
:102CD000FEF9F6D8FED7D531EE56FF19FF19FEF9E9
:102CE000F6D8F6B7EE76EE14E571DCEDD46BCBC812
:102CF0008A04B42BF62FE5ACE58CE5ACE5ACE58CAD
:102D0000E58CEDCCB429AC2BFE91EE30EE2FEE2FFE
:102D1000E5CEEE50F66F8307B46BE5AEDDAEE5CEE3
:102D2000E60FE60FE5EFE5EF8328D5D2FF37F6F69D
:102D3000F6F6F6F6F717A48CA46CA46C83284983E6
:102D40004144394439444164414439443944394463
:102D50003924310429043104310431033103392485
:102D600039243124310431043104290428E42904AC
:102D700028E4290520E420E418C418A418A418A401
:102D800018A41883108308831083108310630884A9
:102D900008630863208341044944516459A4618451
:102DA00059845144410428C31883186328A330C3AD
:102DB00018830043004308830863086308630863BB
:102DC0000863006300430043002318E5E635FEF97D
:102DD000FF19FED8FED8D511CD32FF3AFEF9FF1902
:102DE000F6F9F6D8F676EE55EDF3E590DCEDD4295C
:102DF0009A85BC4BF62FE58CE56BE58CE5ACE58C54
:102E0000E56BEDACAC08AC4BFE90EE30EE0FEE0F88
:102E1000EE30EE30F6509348BC6AE5AEE5EFE60FD3
:102E2000EE50EE30EE30EE2F8B28D5D2F717F71696
:102E3000F716F6F6F717A48CA46C9C2B6226414477
:102E400039443124394441444144414439243124F2
:102E500031243104310431033103310431043103AD
:102E6000392339243924310431043104310428E46C
:102E700028E420E420E420C418A418A418A3108394
:102E80001084108410831083086308630863086348
:102E900008631883412461A46A057A458A868AA654
:102EA0008AA68A66822569C4492428A318831063E8
:102EB00000430043004300430863004300430043D2
:102EC000004300430043004300430042BD52FF392A
:102ED000FF19FEF9FEF8CD118AA9FF19FEF9FEF9D6
:102EE000FEF9F6D8F697F676EE34E5B2DD2ED48B01
:102EF000A2E6BC4BF64FE5ACE56CE58CE5ACE5AC89
:102F0000E56BEDCCAC08A40BFEB1EE30E5EFE5CF00
:102F1000EE50EE50F6908B28BCABE5CEDDAFE61060
:102F2000EE30EE10EE31F6508B28D5B2FF37F6F6C4
:102F3000F716F6F7F717A46CA48C83694144312483
:102F4000312439644144416441443124310329032B
:102F5000290428E328E328E428E428E33104392479
:102F60003924392441443944392431243124312548
:102F70003125290528E520C420C418A418A418A4C4
:102F8000108410840883088310831063106308631F
:102F9000086330E369E57A458AA692E79B27A32870
:102FA000A348A327A3279AE68A6569C4410320A3FF
:102FB00010630043004300430043004300430043C9
:102FC000004300430043004300430001A470FF5945
:102FD000FF19FEF9FEF9DD926123DDB4FF39F6F940
:102FE000F6F9F6D8F6B7F676EE34E5D2DD2FD48BC7
:102FF000AAE6B42AF64FE5ADE58CE5ACE58CE5AC88
:10300000E58CEDECAC099BEBFEB1E5EFE5ADE5AE93
:10301000EE50EE50F6707AC7B44BDDAEDDAEE5F0A3
:10302000E610EE51EE51EE508B48D5D2FF37F6F652
:10303000F6F6F6F6F6F7A48CA46C6286290329242A
:1030400039654985418539642924290428E428E320
:1030500020E320E420C320C328E3310431043924D1
:103060003924392439243104290428E420C420C413
:1030700020C420C418C410841083108310841084CA
:103080000883088308830883088308630863106340
:103090001883516482658AA692E7A328AB48AB687F
:1030A000AB88B388B388AB68AB27A2E68245598466
:1030B00038E32083084300430043004300430043B8
:1030C0000043004300430043002320A2CD30FF19FA
:1030D000FEF9FEF9F6D8EDF39286A3ADFF39F6F8C6
:1030E000F6F8F6D8F6B7F676EE35EE13E570DCCCEA
:1030F000AB07B40AF64FE5ADE56CE5ACE58CE58CC5
:10310000E58CF5EDAC099BCAF670EE30EE2FEE5073
:10311000EE71EE50F6907AC7AC4AE5EEDDAFE61000
:10312000EE30EE31EE10EE309369D5D3F737F6F688
:10313000F6F6F6F6F6F6A48C9C2B49E5210431450B
:1031400049A549A541852924290428E428E320C369
:1031500018C318C318A320C328E328E428E43104C3
:10316000310439243924310428E428E428E428E40B
:1031700028E4290520E520E420C418C410A4108404
:103180001084108310830883086308630863106346
:1031900030C372058266828692E7A328AB68B3A922
:1031A000B3A9B3C9B3A9B388B388AB48A30792A6A0
:1031B0007A05514430E31883004300230043004361
:1031C000004300430043004300027266EDB1F6D8AD
:1031D000FEF9FEF9F697EE34D4EF92C8F6D8F6F879
:1031E000F6D8F6D8F6B7F696EE76EE34E5B2E52EDA
:1031F000B347B42AF64FE58CE5ACE5ACE5ACE5ACFD
:10320000E58CEDCDB429A3EBF670EE0FEE30EE2F8A
:10321000EE51EE50F6708308B46BE5EFE5EFEE305B
:10322000E5EFE5EFEE10EE307AC7D5D2FF37F716AF
:10323000F6F6F6F6F716A48C93CA3144292439859C
:1032400041A539852924210420E320E420C318C4A2
:1032500018C418C320C420C420E328E43104310476
:10326000310439243104310430E428E431043104D8
:1032700029042905290528E520E520C418C420C40F
:1032800020C418A410841084108310831883208312
:103290004944824669E561C592C79B28AB89B3C999
:1032A000BBEABBEABBE9BBC9BBA8B388B368AB2721
:1032B000A2E68A6569A4492428C308430023004381
:1032C000004300430043004300029369EDF2F69689
:1032D000FEF9F6D8F6B7F676F613AB6AE636FEF8E0
:1032E000F6D8F6D8F6B7F6B7F696EE75EDF3E54FE5
:1032F000BBA8C48BF62FE58DE5ACE5ACEDCDE5CDF7
:10330000E5ACEE0EC469A40AFEB1EE2FEE30EE502D
:10331000EE51EE70F6709348B44ADD8DE5EFE6109D
:10332000EE31EE51EE30EE5082E8CDB2FF37F717B6
:10333000F6F6F6F6F6F7ACAC83493124316541C6B2
:1033400041C6294518E420E420E418C318C320C46A
:1033500018C320E420E420C328E328E43104310426
:103360003924392431043124312431243104310405
:10337000312531253105290528E520C420C420E464
:1033800020C418A41084108310631083188330E4C1
:1033900069C571E5392451A582A69B28ABA9BBEA72
:1033A000C40AC42AC42AC40AC3E9BBA8BB88B36838
:1033B000AB47A30792A6822569A4410318630023A3
:1033C000004300430043004300028B4AF633EE55AE
:1033D000F6F8F6D8F6D8F696F655CCAEDDD4FEF86B
:1033E000F6D8F6D8F6D7F6B7F696F676EE35EDD2ED
:1033F000C40ACCABF62FE58CE58CEDCDE5ACE5ACA5
:10340000E5CDEDEDC4A9AC4BFEB1EE2FEE2FEE2FC6
:10341000EE50EE50F6707AC7A3E9DD8EDDAFE61010
:10342000EE10EE30E5CEE5CFBCCCDE12F737F6F687
:10343000F6F7F6F6F717A48C7B283144318641E77E
:10344000398618E418E42104210420E420E320C490
:1034500018C418C418A320A420C328E331043904D5
:103460003924414439243904310430E430E428E477
:1034700028E420E420C418A418A410841084108325
:1034800010831063106310831083188328A34924CA
:1034900061A53104290551C57A469B28B3EAC42B9E
:1034A000CC6BCC6CCC6BCC4BCC2AC40AC3E9BBA88C
:1034B000BB88B368AB27A2E792A67A04514418836D
:1034C000002300430043004300026AA8F654EE556F
:1034D000F6D8F6F8F6D8F697F675DD51D511FEF860
:1034E000F6D7F6D8F6D7F6B7F696F676EE35E5B116
:1034F000C40AC4ABF62FE5ADE5ADEDADE58CE5ACAA
:10350000E5ACEDEDCCEABCACF690EE50EE50EE2F13
:10351000EE30EE50F67072C79BC9D56DDD8EE60FAA
:10352000EE30EE51EE0FEE2FB46BD5D2FF37F6F63C
:10353000F6F7F717F717A46C7B493964318639C75A
:10354000212518E421042904290320E310C310A332
:1035500010A318A320A320A328C328E43104310416
:10356000392439243904390431043904310431252A
:103570003125312539453125290428E428E428E47A
:1035800028C428C420A3188320A328A438E45164A5
:10359000412410A4498561C67A67A348BC2BCC8C12
:1035A000CCADD4ADD4ADD4ACCC6BCC4BCC2BC40A0D
:1035B000C3C9BBA8B368B368AB27A2E78A45596300
:1035C000208300430043004300025A48F675F696F4
:1035D000F6D8F6F8F6D8F6B7F696DD92A38BF6B7DE
:1035E000F6D7F6D8F6D7F6B7F696F676EE34EDB10E
:1035F000C3E9C48BF62FE5CDE5ACE5ACE5ACE5ACB5
:10360000E5ACE5ACD4CABC8BFE91F650EE50EE5062
:10361000EE50EE50F69072E7A3EADDAEDDCFE61095
:10362000EE10EE31E610EE308B27D5D2FF37F6F6EE
:10363000F6F6F6F6F6F6A46B836949E63986318626
:1036400018E420E42104290428E318E318C318C46B
:1036500018C318C420A320C428C428E428E43104D3
:1036600039244124414441444144496449654986DF
:1036700049A649C751C74186414541454125414574
:103680004125390430E430E438E438E4390349248E
:1036900028C439A6836B7A888287ABAAC48CCCCD28
:1036A000D4EED50EDD0EDCCDD4ADD48CD46BCC4BAA
:1036B000CC0AC3C9BBA8BB88B388B368AB279286C2
:1036C000618428A30043004300025A48F675F69629
:1036D000F6D8FEF9F6F8F6B8F676E5918A87DDD4E5
:1036E000F6D8F6D7F6B7F6B7F696F696EE55EDD2CB
:1036F000C3E9CC8CF62FE5CDE5ADE5ACE5ACE5ACAA
:10370000E5ACEDCDBC48AC4BFEB1EE50EE50EE500A
:10371000EE71EE50FEB07AE79368E5CEE5CEE60FA7
:10372000EE30EE31EE2FEE0F8B28D5D2FF37F6F6C6
:10373000F6F6F6F6F717A44C940B62873985212527
:1037400018E418E4210329232923290320E418C3BA
:1037500018A410A410A318A320A320C328E33104A5
:10376000310439243924392439444144496549868E
:1037700051E751E751E749A6496641454165414551
:10378000392430E428C428A430E4494461A55165B3
:1037900028E483ADAD12A3CC9308C44CD4EED50F6E
:1037A000DD2FDD4FDD2FDD0EDCEEDCCDD4ADD48C96
:1037B000CC4BCC0AC3E9BBA8BBA8BBA8BB88B368E9
:1037C0009AC669A428A3004300026289F675F6969A
:1037D000FEF9FF19F6F9F6B7F656F634ABABC4B0FE
:1037E000FEF8F6B7F6B7F6B7F696F696EE55EDD2C2
:1037F000C3E9C48BF64FEDCDEDCDE5ACEDADE5AC59
:10380000E5CDF5EDB4299BEAFEB1EE50EE30EE5079
:10381000EE50EE50F6907AC79348E5CEE5CFEE3005
:10382000EE31E610EE30EE308B07D5B2FF37F716EB
:10383000F716F717F717A46CA46C7B28292418E453
:1038400018C321042904290320E320E410C310A392
:1038500010A410A318A418C320C328C428E430E37C
:1038600031043104312439243924414541654186EC
:1038700049A649C749A749864165496549854145E2
:10388000412430C428A338E4516461C571E561A5C1
:1038900039C79C91C5D5BCF1ABCBD4EFD52FDD306A
:1038A000DD50DD50DD4FDD2FDD0EDCEEDCCDD4ADA7
:1038B000D48CCC4BC40AC3E9C3C9C3C9BBC8BBA819
:1038C000B3889AC661842083000272EAF675F6B75F
:1038D000FF19FF19FEF9F6D8F697F696CCAEB40D9F
:1038E000FEF8F6B7F6B7F6B7F6B7F696EE75EDF260
:1038F000C3C9C48BF650EDCDE5ADE5ACE5ACE5ACA8
:10390000E5ACEDEDBC69AC4CFED2EE71EE50EE5084
:10391000EE50EE50F6908328AC0ADDAEDDAEE5EF5A
:10392000EE10EE30EE30EE0F8B07D5B2FF37F71703
:10393000F6F7F6F6F716A46C9C0B49E5088308A386
:10394000210429242103210320C410A308A30883F0
:1039500008830883108310A318A320C428E430E44C
:1039600031043924392439243924414441444165FE
:10397000498651C749A74986496549655165494501
:10398000412430E428C438E459857A05824651A59B
:10399000290439245A69AC4FC48EDD51DD71DD71C3
:1039A000DD50DD50DD50E54FE52FDD0EDCEEDCCDEA
:1039B000DCACD48CCC4BCC2AC409C3E9BBC9BBC892
:1039C000BBA8B368928651440822730AF675F6B70D
:1039D000FF19FF19FEF9F6D8F6B7F696DD30ABCB36
:1039E000FED7F6B7F6B7F6B7F6B7F696F676EE1355
:1039F000C40ACCCCF650E5CDE5ADE5ACEDCDE5CDDA
:103A0000E5ACF5EDBC69AC4CFED3EE71EE70EE703A
:103A1000EE70EE50F6709389BC8BDD6DDDAEE5CEB9
:103A2000E5AEE610E60FEE2F8308CDB1FF37F6F6D0
:103A3000F6F6F6F6F6F69C2B5A6718C3088308A329
:103A400020E420E32904290320E418C318A310A3C9
:103A500008A310A310A310A318A420C428E43104C1
:103A60003124312431043904392439244144414476
:103A70004965498649864986494549655185516563
:103A80004965310430C43904516482459AC759C626
:103A9000106228C228C18B09DD51DD91DD92DD71F4
:103AA000DD50DD50E570E550E54FE52FDD0EDCEE35
:103AB000DCCDDCACD48CCC4BCC2AC409C3E9C3C963
:103AC000BBC9BBA8B347820530A272A9F655F6B7A9
:103AD000FF19FF19FF19F6F8F6B8F696E5B2B3EC40
:103AE000F696F6B7F6B7F6B7F6B7F696F676EE139D
:103AF000CC4BCCECF64FEDCDE5ADE5ACE5CDE5CD71
:103B0000E5ADEDCDB429A42CFEF3F671F671F67196
:103B1000F671EE70FEB09368B409DD4CDD8EE5EF12
:103B2000E610EE31EE30EE0F9368CDB1FF37F6F6CA
:103B3000F6F6F6F6F7177B69312418A308A308A355
:103B400010A310C320E320E318C318C318C318C37D
:103B500018C318A310A318A320C428E4290431040F
:103B60003924392439243924392439243924412564
:103B700041454986498649454124412449444125D6
:103B8000412430C428C3390451448A86B3696A4841
:103B900010C549E73103BCAFDD72DD92DD92DD7106
:103BA000DD70E550E550DD50E54FE52FE50EDD0E0B
:103BB000DCEDDCCDD48CD46BCC4ACC0AC3E9C3E9B0
:103BC000C3C9BBC9BB889AC651226A27EE54F6D72F
:103BD000FF19FF19FEF9FEF9F6D8F6B7EE14BC2C62
:103BE000F696F6B7F6B7F6B7F6B6F696F675EE139E
:103BF000C40ACCCCF64FE5CDE5ACEDCDEDCDE5ACD2
:103C0000E5ADEDCDB409A42CFED2EE71EE50EE5030
:103C1000EE50EE2FF6708B28ABC9DD6DE5AEEE30C1
:103C2000EE51EE52EE51EE30B44AD5B1FF37F6F612
:103C3000F6F6F6F6F7176AA820E418C310A310C327
:103C400018C310C318C318E310C308A3088310A334
:103C500010A318A318C420C420C320E329043104EE
:103C60003124312439243924392439254145496501
:103C700049A651E751C749A749864965496549455C
:103C8000392430E430C430C349448246BBCAB42D21
:103C900018E400006A68E5B3D551DD72DD91DD718D
:103CA000DD70DD50DD50E550E54FE52FDD2EDD0EFA
:103CB000DCEEDCEDD4ADD48CCC6BCC2AC409C3E9EA
:103CC000C3E9C3C9BBA8AB2771A461C5E614F6D884
:103CD000FEF9FF19FF19FEF9F6D8F6B7F655C48EAE
:103CE000EE55F6B7F6B7F6B7F6B7F696EE75EE13ED
:103CF000D46BD50DF64FE5CDE5ADEDCDEDCDEDAD0C
:103D0000E5CDEDEDB429AC6CFEB2EE71EE70F6705F
:103D1000EE50EE50F6908B28ABE9E5AEE5EFEE0FF6
:103D2000E610EE30EE10EE0F82E7D5B2FF36F6F673
:103D3000F6F6F6F6F6F65A6720E418C310C318C371
:103D400020C318C310A318C318C310A310A310A333
:103D500010A3108318A320C328E4310431043104D4
:103D60003924392439244144414441454145496677
:103D7000498649C749A649864986496549654965CD
:103D8000412430E430C438C441045964A329DD0F10
:103D9000B48F41248B2ADD92D551DD51DD71DD5088
:103DA000DD2FDD2FDD2FDD2FDD2FDD2EDD2EDD2EB6
:103DB000DD0EDCEEDCCDD48CCC4BCC0AC3E9C3E900
:103DC000C409C3E9BBA9B36882255984DDF3FEF8B1
:103DD000FEF9FF19F719FEF9F6D8F6B7F696CCCF2B
:103DE000E614F6B7F696F6B6F6B7F696F675EE134F
:103DF000D48CD50DF64FE5CDE5ACEDCDEDCDE5ADF3
:103E0000EDCDF60EBC69B48CFEB2EE70F671EE50DC
:103E1000EE50EE50FE908B28AC09DD6DE58EE5CFBF
:103E2000E5CFE5CFE5CFE5CE7AA7D5B1F716F6F623
:103E3000F6F6F6F6F6F6522620E418C418C318C3B0
:103E400010C310A310A308A310A310A310A310A3C2
:103E500010A318A320C320C328E32904310431246C
:103E6000392439244144414441444145414549862E
:103E700051C751C751C74986498649654965496552
:103E8000390430E430C430E4410469C5B3A9CC8DB1
:103E9000DD51D572BC6ECD10D530D52FD4EFD4CE38
:103EA000D4CDD4CDD4CDDCEEDCEEDD0EDD0EDD2EBA
:103EB000DD2FDD0ED4CDD48CCC4BC3EAC3E9C3E9EE
:103EC000C3E9C3E9BBC9BBA89AC66184D5B2FEF8F1
:103ED000FF19FF19FF19FF19FEF9F6D8F6B6D5300C
:103EE000E5D4F6B7F676F6B7F6D7F6B7F675EE344C
:103EF000D4CDD52DF650EDCDE5ACE5ADEDCDE5ADB0
:103F0000E5CDEDCDB449AC6CFEB1EE30EE50EE3007
:103F1000EE50EE30FE908307AC0ADD8DDDADEE1085
:103F2000EE10E611E610EDEF9368CDB1F6F5F6F67A
:103F3000F6F6F6F6F6F65A47290420E310C318C33E
:103F400018C308A310A308A308A310A318C418A398
:103F500010A318A320C428E428E430E43104392451
:103F6000392439444144414441444144414549860E
:103F700051C75A2851E8498649454965496541254F
:103F8000390430E430C430C3410471E5B388B3CAA6
:103F9000BC2CC48ECCAEC46CC46CC46CC44BC44BBF
:103FA000C44BC44BC44BCC4BCC8CD4EDDD0EDD0EDE
:103FB000DD0EDCEDD4ACCC8CCC4BC40AC3E9C3E938
:103FC000C3E9C3E9BBC9BBC9AB4771E5D572FF18EB
:103FD000FEF9FF19FF19FF19FF19F6D8F6D7DD9280
:103FE000DDB3FED7F696F6B7F6D7F6B7F696F655E2
:103FF000DCEEDD2DF650EDCDEDCDEDEDEDCDEDCDE5
:10400000EDCDEDEDBC69AC6CFED2EE50EE50EE5055
:10401000F650EE50FE908328AC0ADD6DE5CEE6103A
:10402000EE51EE52EE31F6519389CD91FF36F6F610
:10403000F6F6F6F6F6F662673124290418C420E392
:1040400018C310A310A318A310A310A318A318A398
:1040500020C420C418C320C328E328E3310431045A
:10406000392439243924414441444144416549A615
:1040700052085A2851E849864966494551854945BB
:104080003904390430E438E441048246AB68AB6853
:10409000A348A347A348AB68B3A9B3E9BC0ABC0AC9
:1040A000BC0ABBE9B3C9B388B388BBEACC8CD4CD16
:1040B000D4EDD4CDD4ACCC6CC42BC42AC40AC3C9AF
:1040C000C3E9C3E9C3E9BBC9B3888245D572FEF829
:1040D000FF19FF19FF1AFF1AFF19F6F9F6B8E5F3F1
:1040E000DD51FED7F696F6B7F6B7F6B7F696F67543
:1040F000DD2FDD4DF630E5ADE5CDEDCDEDCDEDCDF2
:10410000EDCDEDEDBC69B48DFED3F671F671EE70B8
:10411000EE50EE50FE918B48AC0ADD8DE5EFEE10CF
:10412000EE30EE30EE30EE509BAACD92FF37F6F631
:10413000F6F6F6F6F7167B093944312420E420E33D
:1041400020E310A310A310A318C318A318C318C406
:1041500018C320E429042904290428E42904290493
:1041600031043104392441244144414441454986C4
:1041700059E75A4951E849A64965496549654145A4
:10418000390430E430E430E441048246B3A9AB8919
:10419000A3289AE79AE7A327AB88B3C9BBEABBEA8F
:1041A000BBC9B3A9B368B368AB289AC7AB28CC2BFB
:1041B000D4ADD4CDCC8CCC6BC44BC42ABBC9C3EB1F
:1041C000C3EAC3E9C3E9BBE9BBC992A6D572FEF84D
:1041D000F719FF19FF19FF1AFF19FEF9F6D8F6555E
:1041E000D510F6B6F696F696F6B6F6B7F695F674D8
:1041F000DD0EDD2DEE50EDEEE5CDEDCDEDEDEDCDB1
:10420000EDCDF5EDC48ABCCDFED2EE71EE50EE5090
:10421000EE0FEE30F6709368B409DD6DE5CFEE1069
:10422000EE51EE51EE30F6509BAACD92F716F6F60F
:10423000F6F6F6F6F6F68B8A59C63924290320E3FA
:1042400028E318C318C318A318C320C320C320C36E
:1042500020E320E320C328E4310431243124312435
:1042600031243124392439243924412441454985D4
:1042700051C751E751E851A74986498649654144EC
:1042800030E428C428A4288341048246C44CC44C8A
:10429000B3A9AB48AB47AB88B3C9B3EABBEABBE948
:1042A000BBE9B3C9B3A9BBEAC40AC40AA308B3896A
:1042B000CC6CCC6CCC6CCC4BC44BC3EAB3489AA747
:1042C000BB89C3C9C3E9C3E9C3E99AE7D551FEF87D
:1042D000F6F9FF19FF19FF19FF19FEF9F6D8F6963E
:1042E000DD30F656F6D7F696F696F6B6F675F63350
:1042F000C3EACCEDF650E5CDE5ADEDCDE5CDE5ADD0
:10430000E5ACEDEDBC69B48DFED3EE51EE30EE5070
:10431000EE2FEE50F6909348B44ADDAEE5CFEE10A6
:10432000EE31EE31E5EFEE0F9B89CD91FF36F6F6DB
:10433000F6D5F6F6F6F79BEB6A474964392428E48C
:10434000290320C318C320C320C320C328E328E3C4
:1043500028E328E3290428E428E3310439243944F4
:1043600039243944414441444144414541654986E9
:10437000498649C751C7498649454966518651858D
:104380004945390438E441248267BBEBE5B2E5D303
:10439000DD2FCCACBC0ABBC9BBEABC0ABC0ABC0A58
:1043A000C42AC42AC42BC40AC40ACC6BB389A30789
:1043B000C40BCC4BCC4BC42BC3EAC3CAAAE881655F
:1043C000AB08C3A9C3EAC42BC40AA328D551F6D7A6
:1043D000F6F8F6F8FEF9FEF9FEF9FEF9FED8F6B7A2
:1043E000E592EE14F6D7F696F696F696F675F6532F
:1043F000B3A9C4EDF650EDCDE5ACEDCDEDCDEDCDF1
:10440000EDCDF5EDBC49B48DFED3EE51EE50EE305E
:10441000EE30EE70F6B19388BCACE60FE5F0E61036
:10442000EE30EE51EE72EE51A3CACD91FF16F6F6C4
:10443000F6D5F6F6F7179C4B7AE859C5496431244E
:104440003104310420C320C328E328E328E328E310
:1044500028E328E3310428E428E42904312439241A
:104460004144414549654145414449A651A651C78A
:1044700051E85A2951E851A7496651A651A6494524
:10448000412439244124412469C5C4AEF6B7F6D885
:10449000F6B7F675EDF3E5B2DD2FCCADCCADCC8C37
:1044A000CC8CCCACD4CDCC6BBBEA79E58A25A2E729
:1044B000C40ACC2BC42BC3EAC389CBEBB287A24678
:1044C000AAE8BBA9C40ACC6CCC4CAB69DD72F6B7C8
:1044D000F6B7F6D8F6D8F6F8F6F8F6D8F6D8F6978E
:1044E000E5B3E5D3FED7F696F696F696F675F6534F
:1044F000BBEACD0DF64FEDEEE5ADEDCDE5ADEDCD85
:10450000EDCDEDEDC4AABCCDF6B1EE10EE30EE2F40
:10451000EE30EE50F6909368B44AE5AEE5EFE61063
:10452000E5F0EE31EE31F671A3EACD91FF36F6F605
:10453000F6F6F6F6F71793EA83296A46518449643A
:1045400039243124290320C328E328E3310328E355
:1045500031043103290431042904290431043124AC
:104560003924496551855185518551A659E75A0825
:1045700062286A8A624959E751A651A64985518540
:1045800041243904494461A58AC7E5D3FED8F6F928
:10459000F6F8FED8F6D8FED8FED7F675EE13E5D2BB
:1045A000E591E591E5B1DD0EC42B8A46AB28C44BFD
:1045B000CC8CCC4BCC2BC3AACB8AB309B2A8C308F2
:1045C000AAC7C3A9CC4CD4ADD4ADB3AADD92F6B67C
:1045D000F6B6F6B7F6B7F6B7F6D8F6D8F6B7F69752
:1045E000EDF4DD30F6B6F696F695F695F674F653DC
:1045F000BBEACCEDF650EDCEE5ADEDCDE5ACEDCCC6
:10460000EDEDEDEDCCAABCACF691F651EE50EE50CE
:10461000EE50EE71FEB19369AC09DD8DE5CFEE3160
:10462000EE30EE51EE51F6518B48CD71FF16F6D6B5
:10463000F6F6F6F6F716838983497AC86A06518436
:1046400041444144392428E328E328E33103310479
:1046500028E3312431043104312439243924392424
:1046600039243924416451A56A066A2772686A4868
:1046700072896A696A286A076A076A2761E7598640
:10468000516561C58AA8AB8ADD71F696F6B7F6D892
:10469000F6D8F6F8FEF9FF19FF19FF19FEF8FEB774
:1046A000F696F675F655EE13DD2FCC2ADD0FF6766D
:1046B000EE14E591D44CC349C3498A06CB2AD38A68
:1046C000BAC7C3CAD4AEDD0FD4EEBBEBDD91F6752D
:1046D000F676F696F696F676F696F676F676F6761A
:1046E000EDF3C44CEE34F696F675F675F654F633E3
:1046F000BBEACCEDF650EDEEEDADE58CE5ADE5AC0D
:10470000EDCDF60DC48ABCADF691EE50EE50EE50F4
:10471000EE50EE50FED18B49A3E9E5CEE5F0E61070
:10472000EE51EE31EE10F6508B08CD71FF37F6F6F4
:10473000F6F6F716F7177B497B4983297A8759C51F
:10474000518449644964392431033103310331030D
:104750003124310431243924392439444144414439
:10476000494449444965416551A57248932A9B8C47
:10477000A3AD934C82EA82A982A9826869E659A511
:104780007A479B08B3CACC6DD50FDD51E5D3EE77E0
:10479000F6D8F6F8FF19FF19FF19FF19FF19FF19CD
:1047A000FEF9FED8F6B7F696EE14E591DD0FE59228
:1047B000EE14EDF3DC6DCB8AAAE8A2A9E46EE44E18
:1047C000CB6ACC2BDD30DD50DD30C42CDDB2F654AD
:1047D000EE75F675F675F655EE55F655F655F65531
:1047E000E571AB49E5F3F695F675F695F674F65373
:1047F000C44BD52DF62FEDEEEDCDEDCDEDEDE5ADC8
:10480000EDCDF62EC48ABCADFEB2F671F671F6712E
:10481000EE71F671FED18B48A3E9E5CFE5F0E61025
:10482000EE51EE52EE51F6719369CD71FF37F6F607
:10483000F6F6F717F7177B287B28832982E86A05A5
:1048400059A4518459A45184392339243924312459
:1048500039243944312431244144414441444144C0
:1048600041444964516559A559C6620772687AA9DD
:1048700082C99B2B9B2A9B6B9B6B9B2A7A6792E836
:10488000C44CCC8DCC8DCCAED4EFD4EEDD51E5B3A1
:10489000EE55F6D8FEF9FF19FF19FF19FF19FF1998
:1048A000FF19FF19FF19FED8F697EE75E5B2DD0F77
:1048B000DCEEEDB2E552E4CFB309AACAF532ECF171
:1048C000D40CCC6DE572E571E571CCEEE5F2EE54F9
:1048D000F675EE75EE75EE54EE13E5B2E571DD2F6B
:1048E000C3EB8267E5F3F675F675F675F654F633A5
:1048F000C42BD52DF650EDCEEDEDEDEDEDEEEDCD7D
:10490000EDCDF60ECCCAC4EDF691EE50EE50EE5061
:10491000EE50EE50FEB18B689BA9E5AEE5F0E630B7
:10492000EE30EE30EE31F651A3CACD91FF37F716D7
:10493000F6F6F6F6F7177B497B28834883287AA793
:104940006A0559A459C461C451844144414439247D
:10495000392439244964414439244144414441447F
:104960004124416449655185620772687AAA8B2B9C
:10497000932B930AA36BB3EDC46EA36B8267B3EC66
:10498000D50FCCAEC48DC44CCC4CD50FD4EFDD923A
:10499000E5D3F676FEF9FF19FF1AFF1AFF19FF1982
:1049A000FEF9FF1AFF3AEE56E592F6B8F6D8F697FA
:1049B000EE14F636F616F5D4AAA8D3ACF532E48F89
:1049C000D40CD4CFE5F4E5F4E5B2DD51EE13F654A2
:1049D000F674EE54EE54EE34EE13E591DCCECC0AD0
:1049E0009A455985E5F3F675F654F654F654F632C1
:1049F000BBC9CCEDF650EDEEEDCDEDEDEDEDEDCD31
:104A0000EDCDF60EC4AAC4CDFEB1EE71F671F6710D
:104A1000F671F671FED18B899B88DD8DDDCFE610B6
:104A2000EE51EE30EE30F650A3EACD91FF36F71698
:104A3000F6F6F6F6F6F68BAA836983698B69832806
:104A40007AA769E559C561C561C55184416441448E
:104A500041444144414449654965414441444144DC
:104A60004965414441444145496559E76A6982CAFB
:104A70008B0A9B4BABABC46EBC2D82878267ABCBE2
:104A8000C44DC46DCCCEBC0C8A87C48FC46ED51007
:104A9000EE15EE76F6B8FEF9FF1AFF1AFF19FF19A8
:104AA000FEF9FF19FF19EE14DD71F697F6D8F6D866
:104AB000F6D8F677EDD4DCB0A268F573F552E46F62
:104AC000CC0CDD31EE35EE55E5F4E5B2F634F654B6
:104AD000F654EE34EE34EE13EDD2E590DCEDC40A7C
:104AE00092664965DDB2F675EE34F634F654F65347
:104AF000C42BD50DF650EDEDE5ADE5ADEDCDEDCD2D
:104B0000E5ACEDCCC489BCCDFEB2F671F691F67180
:104B1000EE71F671FED28B699BC9E5CEE5EFE6102A
:104B2000EE31EE51EE30F6719389CD71FF57F716E5
:104B3000F716F716F71693EB8BAA8B8983698B69A7
:104B400083297A6761C561C561E569E55185498455
:104B50004984496449644124496451854944414533
:104B600049654965494549654965498659C7622886
:104B70007A898AC99B2AB3EC9B6A7A479329D4EF36
:104B8000DD50D50FC44C6A068BADCD53BC0DDD7224
:104B9000E5F4EE76F6B7FED9FF19FF19FF19FF19F4
:104BA000FEF8FEF9FEF9FEF8FED8F6B8F6D8FED803
:104BB000F6D8F698EDB4DC4ED3CDFE16F594ECD0D5
:104BC000D46DE5B3F697F697EE35EDF3F634F6547B
:104BD000F634EE33EE13EDD2E5B1DD4FDCEDCC2A49
:104BE000928630C3CD30F675EE34F654F654F65353
:104BF000D48CD52DF62FEDEDEDCDEDCDEDCDEDCD6C
:104C0000EDCDEDCCC48AC4EDFEB2F671F691F6712D
:104C1000EE51F671FEF293899B88DDAEDDAFE610B2
:104C2000EE31EE30EE10F6509BCACD71FF57F717FC
:104C3000F716F6F6F717942B8BCA8BA98B898B691D
:104C4000832882E87A6661C561E56A0569E559A548
:104C500051A5518451855185496549444964496547
:104C6000496549654965496551A65A0862496249DD
:104C7000622872688B0A930A722761C69329DD2F16
:104C8000DD30DD50932A730CDE78D5F6CCCFDD9382
:104C9000EE15EE77F6B7FED8FEF9FF19FF19FEF90B
:104CA000FED8FED8FED8F6D8FED8FED8FED8FED85C
:104CB000F6D8FED8EE15DC4EE4D1FE16F5B4E5527A
:104CC000DD30EE15F6B8F6D8EE55EE54F654F6543F
:104CD000EE33EE12EDF2E5B1E56FDD0ED4ACCC2A89
:104CE000A2C730C3AC0CFE54F634F654F654F65357
:104CF000D4ADDD2CF62FEDCDE5ADEDCDEDEDEDCD6B
:104D0000EDADEDCDCCEBCD0DFEB1F671EE71EE500B
:104D1000EE30F671FE918B689BCAE5EFDDAEEE31A9
:104D2000EE52EE51EE30F6719B89CD71FF57F6F6DB
:104D3000F6F6F6F6F7179C2B93EA8B8983698B6955
:104D400083287AE882C8724669E561E672266A05B8
:104D500061C559A5518551A54985496449444965AD
:104D600051854985498551C762496249624972CB7B
:104D70006A8A62087248724861C661C59329D4EE96
:104D8000DD71D4F062088C51E6FAEEFAD531E5F423
:104D9000EE56F697F6B8F6D8FEF9FF19FF1AFF1986
:104DA000FEF8FED8FED8FED8FED8FED8FEF9FEF9F1
:104DB000F6D8F6D8F697D44DDC6FF616F5F5E5B3D0
:104DC000E5B2EE56F6D8F6D8F696F675F675F654C0
:104DD000EE33EDF2EDD2E590E54EDD0DD48CCC2A2C
:104DE000AAE730A36206EDB1F633F634F654F65373
:104DF000D4ADDD0DF62FEDCDEDCDEDCDEDEDEDCD61
:104E0000EDCDEDCDC4AAC4CDFEB1F671EE71EE507C
:104E1000EE30F671FEB193899BA9DDCFD56EE5EF3B
:104E2000EE30EE10E5EFF6509389C550FF37F6F6F9
:104E3000F6D5F6F6F7179C4B8BEA8BA98B898B6915
:104E400083287AE77AE882C872466A066A0672069A
:104E50006A0661E551A55185518551A549654965A8
:104E60004945518559C66248628A6ACB6A8A622975
:104E7000622962486A2859E6518651858AA7C44C3E
:104E8000DD30A3EE310431026247ACB0DD93EE5663
:104E9000F697F6B8F6D8FED8FEF9FF19FF1AFF1AF2
:104EA000FF19FEF9FEF8FED8FED8FEF9FEF9FEF96C
:104EB000F6D8F6D8F6B8DCF0C38CF616EE35EE145C
:104EC000E614EE76F6D8F6D8F6B7F675F675F6541B
:104ED000F633EDF2EDD1E5B0E56FDD0DD48CCC2AE3
:104EE000B32838E328E4DD0EEE12EE13F633F63382
:104EF000CC2BD4ECF62FEDCEEDEDEDEDEDEDEDEDB3
:104F0000EDCDF60ED4EBC4ECF691EE70F671F651E1
:104F1000EE50EE50FEB093899B88DD8EDDAEE5EF5E
:104F2000EE51EE51EE31F6919389C550FF37F716E9
:104F3000F6F5F6D5F6F69C4B8BEA83898B898B893F
:104F4000832883087B0882E882C87A6769E56A0655
:104F50006A266A0661E559A5518551A551854965BD
:104F60004985498551C762296AAB6AAB6A8A6A4931
:104F700062285A076207620759A6494561C69B29FC
:104F8000D4CF7AEA10C46B0C49438B4AEE56F6B87C
:104F9000F6D8FEF9FEF9FED9FEF9FF19FF1AFF1A3D
:104FA000FF19FEF9FEF9FEF9FEF9FEF9FF19FEF907
:104FB000FEF9F6D8F697E592DCF0EE55EE76EE5572
:104FC000EE55EE76F6B7F6B7F6B6F675F654F65435
:104FD000F633EDF2EDD1E5B0E56FDD0DD4ACCC2AC2
:104FE000BB88494410A3D48DEDD2EDF2EE33F633F5
:104FF000D46CDD2CF64FEDCDEDCDEDCDEDCDEDEE60
:10500000EDEDEE0ECCEAC4EDF691EE71EE71EE51DF
:10501000EE50EE50FE9093899369D58DDD8EDDCFF5
:10502000EE51EE10E610F6719348CD71FF57F7166A
:10503000F737F717F7179C4B93EA838983898B8996
:1050400083287B077AE77AC77AC782C87A676A06B5
:1050500072267226720669E55985518559A551A6B1
:1050600051C659E7622962696A8A6A8A628A6A8ACB
:105070006A49622859E751A651864145414561C5B3
:10508000B3CB624810A331446226D593F6B8F6F844
:10509000FEF9FF19FEF9FEF9FF19FF1AFF1AFF1AB0
:1050A000FF1AFF19FF19FF19FF19FF19FF19FEF960
:1050B000FEF9F6D8F6B7EE56EE55EE76EE76EE55EC
:1050C000EE55EE76EE96F6B6EE55DDD3F674F63383
:1050D000EE13EDF2EDB1E590E54FDD0DD4ACCC2A49
:1050E000C3A969E610C5B3CAEDB1EDD1F633F63305
:1050F000DCADDD4DF62FEDEEEDEDEDCDEDCDE5CDFD
:10510000EDCDEE0ECCEBC4CCF690EE50EE50EE5062
:10511000EE30EE30FE9183489368D54DD52DDDCF2E
:10512000E5CFE5CFE5CFEE0F9B69C551FF58F717E7
:10513000F717F716F7179C4C93EA8BA98389838995
:105140007B287AE772C772A772A77AA77A877A470D
:105150007227724772277A476A0661C559C561E6A8
:10516000620762286A6972AB6A8A62495A086228D1
:105170006A486228620751A6392439043904412457
:105180009309620739669BABCD31EE77F6D8FF19EC
:10519000FF1AFF1AFF1AFF19FF1AFF1AFF1AFF3A28
:1051A000FF3AFF1AFF1AFF1AFF1AFF19FF19FEF93B
:1051B000FEF9FED8F6B8F697EE76EE76EE76EE5578
:1051C000EE55EE55F696EE555248838CFEB5F63305
:1051D000EE12EDF2EDB1E590E54EDCEDD48CCC2A8B
:1051E000C3A88AA831C99308ED4FE54FF613F633EB
:1051F000D4ACDD4DEE2FEDEEEDEEEDEEEDEDEDCDC3
:10520000EDCDF60DCCAAC4CDF6B1F671F671F6501F
:10521000EE50F671FED28B699388DD8EDD6DE5AFC1
:10522000E610E610EE30F651A3C9C550FF57F71748
:10523000F717F6F6F7179C4C93EA8BA983898389B5
:105240007B2872C76A86626662666A6672877A8738
:105250007A677A477A6772477A687A4861E661E6E0
:1052600062286A696A8A6AAB6A8A624962286A48FD
:105270006A286A486A2751A6414530E43104494406
:10528000ABCBA38A4165D5B4F6B7F6B8FF19FF3AA0
:10529000FF3AFF3AFF3AFF3AFF3AFF3AFF3AFF3B45
:1052A000FF3AFF3AFF1AFF1AFF1AFF19FF19FEF91A
:1052B000FED9F6D8F6D8F6B7F696EE76EE76EE5636
:1052C000EE76FE96CD5141E70000836CFEB5F633D5
:1052D000EE13EDF2EDD1E590DD4EDD0DD4ABCC4A11
:1052E000C3C89AE85A4A8287DCCDDCEEEDF2F63488
:1052F000D46CDD2CF64FEDEEEDCDEDEEEDEDEDCD1C
:10530000EDEDF60ECCEBC4EDF691F671F671F6719B
:10531000F671EE70FEB18B489368DD8ED52CDD6D95
:10532000E5EFEE10E5EFEE30BCACD5B1FF37F71787
:10533000F716F6F6F7179C2B93EA8BAA83A98389B5
:105340007B286AC762665A256246624662466A26BA
:105350007A8782A882887A887A8882EA7AC97248AB
:105360006207622872AA72CB72AA6A6A6A696228A4
:10537000622861E761E661E649453104310459A5D7
:10538000CCEFCD0F936BEE57F719FF19FF3AFF3AA9
:10539000FF3AFF5BFF5BFF5BFF3AFF3BFF3BFF3BDF
:1053A000FF3AFF3AFF3AFF1AFF1AFF1AFF19FEF9F8
:1053B000FEF9F6D8F6D8F6B8F697EE76EE76F696CB
:1053C000EE3493CC10A300020002838CFEB5F633BA
:1053D000EE12EDF2EDB1E58FDD4EDD0DD4ACCC4A31
:1053E000C3E9AB2872697206C40AD4ACF613F6346A
:1053F000D46CDD0CF64FEE0EEDEEEDEEEDEEEDCDF8
:10540000EDEDF60ED50BCD2DF691F671F671F67128
:10541000F670EE50FEB093899347D50CD56EE5CF6C
:10542000E5EFEE30EE10F6509BC9C571FF58F71747
:10543000F716F6F6F6F693EB8BEA8BCA8BAA8389FE
:105440007B2872C762865A465A466A876266622617
:1054500062057AA782C882A882A882EA82EA82EAE2
:105460007AAA72696A696A6A6A8A6A6A6A49622891
:10547000622859E7496541444945412430E4516473
:10548000BC6DEE34EE56F6D8FF19FF19FF3AFF3A1D
:10549000FF5BFF5BFF5BFF5BFF5AFF3AFF3BFF3B9E
:1054A000FF3BFF3AFF3AFF3AFF1AFF1AFF19FEF9D6
:1054B000FEF9F6D8F6D8F6B8F697F696F675BCCF9C
:1054C00041E700220023006400228B8BFEB4EE3300
:1054D000EE12EDF1EDD1E590E54EDD0DD4ACCC6BE7
:1054E000C409B348724859A5AB28CC2BF5F3FE5438
:1054F000D48CDD0CF62FEDEEEDEEEDEDEDEDE5CD22
:10550000EDCDF62ECCEBCD2DF691EE50EE50F650C3
:10551000EE50EE2FF690A3EA9327DD6DDDAEE5CFDA
:10552000E5EFEE10EE30EE0F8B28C550FF37F71782
:10553000F717F6F7F71883AA838983898389836924
:105540007B2872E76AA76AA76AA772C76AA762463A
:1055500062266A6682C782E88AC882A882A97AC956
:1055600082EB82EA7ACA7AEB72CB6A8A6A6962480B
:105570006A48622751A6414530E430E43904516459
:10558000C46DF6D8FEF9FEF9FF19FF19FF3AFF3A8C
:10559000FF5BFF5BFF5BFF3AFF3AFF3AFF3AFF3AE0
:1055A000FF3AFF3AFF1AFF1AFF19FF19FEF9FEF939
:1055B000F6F9F6F8FEF9FF18F676BCF05A680863BB
:1055C00000220063088410A400428B8BFEB4EE32EC
:1055D000EE12EDF1EDD0E590E56FDD0DD4CCCC6BA6
:1055E000CC09BB887A6741458A86BB89F5F2D50F1D
:1055F000A328DD4CEE2FEDEEEDEEEE0EEDEEEDED33
:10560000EDCDF62ED52BD54EF690EE50EE71EE7018
:10561000EE70F670FED19BEA9368DDAEE5AEE5EF85
:10562000EE10E610E5EFF6519BA9C551FF57F717AD
:10563000F717F6F7F7377B497B487B487B487B4871
:10564000730872E772E772E87B287B4972E86A8721
:1056500062666A877AC783298B498AE882C982EAA7
:1056600082CA830B8B2B830B7ACB72AA72896A480E
:105670006A486A4861E64965390430E430E4410427
:1056800092C8EDF3FF39FF39FF19FF19FF39FF3ACF
:10569000FF3AFF3AFF3AFF3AFF3AFF3AFF3AFF3A42
:1056A000FF3AFF1AFF19FF19FF19FF1AFF3AFF5AB5
:1056B000FF3AFED8D5B38BAD39C708630022086323
:1056C0000864088418A418A4104393ACFE94EE1246
:1056D000EE12EDD1EDB0E58FE54FDD2DD4CCCC6BE6
:1056E000CC2ABBA892A7518571E5A2C7C3EA616421
:1056F0005983EDADEE2FEDCDEDEEEDEDEDCDEDCD34
:10570000EDCDEE0ED50BD52DF691EE50EE70EE7080
:10571000EE50F670FEB19BCA9B68E5CEDD8EDD8E45
:10572000E5CEE5CFE610EE308B07C551FF58F717F1
:10573000F717F717F717734973287B487B487B28BF
:1057400073076AE772E87B2883698B89834872C78D
:1057500062666A8672C783288B8A938A8B098AC895
:105760008AEA82E9830B8B2B8B0B830B82EB72AA69
:1057700062285A07620759C641253925392430E481
:1057800049047A26C48FF676FF59FF7AFF7AFF7BA9
:10579000FF7BFF7BFF7BFF7BFF7BFF7BFF7BFF7B39
:1057A000FF9BFF7BFF7BFF7AFF39EE97D5D4B4F1E7
:1057B0008B8D520718C300220023108318A410A455
:1057C00010A418A420E428E41863938BFE94F61226
:1057D000EDF2EDD1EDB0E58FE56FDD2ED4ECCC8BA5
:1057E000CC2ABBA8A2E769E6618592869A6669849D
:1057F00069C4E5ADEE4FEDEEEDCDEDEDEDEDEDCDAA
:10580000EDCDEDEDD50BD54EF691EE51EE71EE717D
:10581000EE50EE2FFE909BEA9B67DD8DDD8DE5EF70
:10582000E5CFE5EFE5CFEDEFA3A9CD71FF58F71672
:10583000F717F717F7177B897B697B697B697B48CB
:1058400073086AE772E87B2883898BAA836972C729
:1058500062676A8772C783288B6A8BAA938A8B498F
:105860008B098AE98AC982EA82EA8B0B8B2B82EB4D
:105870007AAA6A4859E759C749863924390430E475
:1058800028C41863206241656AAA8BCDAC90BD1212
:10589000CD94D5D5D5F5DE16D5F5CDD5C594BD338A
:1058A000ACB1A4708BEE7B4C6269396620C4106386
:1058B0001042186318A418C420A420C418A410848B
:1058C00018A430E439453104208393ABFE93EE12E3
:1058D000EDF1EDD1EDB0E590E56FDD2EDCEDD4AB73
:1058E000CC4AC3C9AB077205596482259AA679C50B
:1058F00071E4E58CEE50EE0EEDEEEDEDEDEDEDCD5F
:10590000EDCDEE0DD52BD54EF6B2EE91F692F69288
:10591000F691F650FEB193899348E5AEDDAEE5EF22
:10592000E610DDCFE5CFEE0F9368C530FF58F717CF
:10593000F716F717F7178BCA83AA838983897B69C0
:10594000730872E773087B4883898BAA836972C7DF
:10595000628762876AC77B498BAA8BAA8BAA8BABAB
:1059600093AA936A93498AE98AC88AC9930B934B8D
:105970008B0B82CA7248620751864145390430E474
:1059800030E428A41063004200020002000200225A
:1059900008631063108310A318A318831883186377
:1059A00018621842104210421063188320A420C4C9
:1059B00020C420A420C420C428C420C4188428C41F
:1059C000390449864145310420839BCCFE73EDF1B7
:1059D000EDD1EDD1EDB0E590E56FDD2EDCEDD4AB92
:1059E000CC4AC3C9AB278245596461848A6679E58C
:1059F00071E4E56CEE2FEDEEEDEEEE2EEDEEE5ADA5
:105A0000EDCDF62ED50BCD2EF6D2F692F692F6927D
:105A1000F671F650FEB193A99BA9E5CEDDCFE5CF97
:105A2000E610E5CFEE10F62F9BA9C530FF58F7170B
:105A3000F717F717F7179C4C940B8BEA8BCA83A9BF
:105A40007B28730873087B4883898BAA836972E774
:105A5000628762876AE77B698BCA8BCB8BCB8BAB08
:105A600093CB93EB93CB936A8B098AC88AC98B0A31
:105A7000934B930A8AE982A9620749654145390433
:105A8000390430E428C410631063086308630863B2
:105A90000863086310631883188318A420A428A43B
:105AA00028C428C428C428C430E430E43905392582
:105AB000390541253905390438E430E43904518683
:105AC00059A641653925390420839BECFE73EDF11D
:105AD000EDF1EDD1EDB0E590E56FDD2EDD0DD4AC4F
